:020000040800F2
:10000000C8060020CD0100081F08000845060008AA
:100010007D07000887020008750E00080000000038
:10002000000000000000000000000000610900085E
:100030001104000800000000990800080D0A0008DB
:10004000E7010008E7010008E7010008E7010008F0
:10005000E7010008E7010008E7010008E7010008E0
:10006000E7010008E7010008E7010008E7010008D0
:10007000E7010008E7010008E7010008E7010008C0
:10008000E7010008E7010008E7010008E7010008B0
:10009000E7010008E7010008E7010008E7010008A0
:1000A000E7010008E7010008E7010008E701000890
:1000B000510A0008E7010008E7010008E70100080D
:1000C000E7010008E7010008E7010008E701000870
:1000D000E7010008E7010008E7010008A10C00089B
:1000E00097040008E7010008E7010008E70100089D
:1000F000E7010008E7010008E7010008E701000840
:10010000E7010008E7010008E7010008E70100082F
:10011000E7010008E7010008E7010008E70100081F
:10012000E7010008E7010008E7010008E70100080F
:1001300000F002F800F03AF80AA090E8000C8244BF
:100140008344AAF10107DA4501D100F02FF8AFF29C
:10015000090EBAE80F0013F0010F18BFFB1A43F0A5
:1001600001031847B00D0000D00D0000103A24BF65
:1001700078C878C1FAD8520724BF30C830C144BF0C
:1001800004680C607047000000230024002500264E
:10019000103A28BF78C1FBD8520728BF30C148BFEA
:1001A0000B6070471FB51FBD10B510BD00F031F8D2
:1001B0001146FFF7F7FF00F065FE00F04FF803B4BB
:1001C000FFF7F2FF03BC00F057F800000948804732
:1001D00009480047FEE7FEE7FEE7FEE7FEE7FEE729
:1001E000FEE7FEE7FEE7FEE704480549054A064B41
:1001F00070470000110A000831010008C800002003
:10020000C8060020C8020020C802002070477047BE
:100210007047754600F02CF8AE4605006946534617
:1002200020F00700854618B020B5FFF7DDFFBDE8D8
:1002300020404FF000064FF000074FF000084FF04D
:10024000000B21F00701AC46ACE8C009ACE8C009DE
:10025000ACE8C009ACE8C0098D46704710B504464B
:10026000AFF300802046BDE81040FFF7A8BF0000B4
:10027000004870476800002001491820ABBEFEE727
:10028000260002007047FEE705496FF0270008705E
:100290000449087004490870044908707047000058
:1002A00004000020050000200600002007000020B8
:1002B000044928200870044908700449087004495A
:1002C0000870704704000020050000200600002090
:1002D0000700002006496FF01300064A0870282125
:1002E00011700549087005493220087070470000F8
:1002F0000400002005000020060000200700002068
:100300002DE9F041284D1021284600F099F90421EB
:10031000284600F095F92548E914264C90F900206C
:100320002348002A1BDD2368934202D200F088F99B
:1003300001E000F083F90121284600F07FF91E4812
:100340001E4F4FF4007690F90000002813DD21685D
:1003500081421FD24021284600F072F91EE0E8DAFF
:10036000236852429342E4D200F068F90121284602
:1003700000F066F9E3E70DDA21684042814209D2D4
:100380004021284600F05AF931463846BDE8F04190
:1003900000F056B94021284600F050F93146384661
:1003A000BDE8F04100F04AB900140140050000200A
:1003B0000010014000000020060000200020014045
:1003C00006492820074A087005496FF01300087095
:1003D00032211170044908707047000004000020A9
:1003E000050000200600002007000020044900202E
:1003F000087004490870044908700449087070477F
:100400000400002005000020060000200700002056
:10041000704710B5044602E08C2000F005F8641E19
:10042000E4B2F9D210BD000031B50C4D00980121A5
:1004300084B2284600F06CFB2146284600F088FB79
:1004400003E0284600F06EFB0446012CF9D828464C
:10045000BDE83840002100F05BBB00000004004014
:1004600000EBC0014FF0E0204161016941F0010162
:1004700001610169C903FCD50021016181617047F7
:1004800000B502464FF47A7302E01846FFF7E8FF22
:10049000521EFAD200BD10B54FF48064204600F021
:1004A00011F8002806D0204600F006F8BDE81040FC
:1004B00000F0CAB810BD0000014908607047000094
:1004C00014040140064A014600201268044B0A4009
:1004D00014331B680B4202D0002A00D00120704761
:1004E0000004014030B51A4A8379016853B3136898
:1004F0008B431360111D0B680468A3430B600179E3
:1005000011440B68046823430B60114B08331968CE
:100510000468A14319601C1D21680568A943216076
:100520004179102905D011440A68006802430A6025
:1005300030BD1968026811431960216800680143E1
:10054000216030BD0079104402688A43026030BDEA
:100550000004014010B50121042000F0ABF9012195
:10056000082000F0A7F90121102000F0A3F90121D3
:10057000202000F09FF90121402000F09BF901218B
:10058000802000F097F90121BDE81040080200F03A
:1005900091B9F0B5CC78002204F00F03E40601D540
:1005A0008C7823430C784FF00F0C14F0FF0F4FF0B2
:1005B000010E1BD005680E880EFA02F42640A642F2
:1005C00010D196000CFA06F725EA070703FA06F59C
:1005D000CE783D43282E02D0482E02D002E044615E
:1005E00000E00461521C082AE5D305600A88FF2A4E
:1005F0001CD94468002202F108060EFA06F50E889E
:100600002E40AE420ED196000CFA06F7BC4303FA18
:1006100006F7CE783C43282E00D14561CE78482E8F
:1006200000D10561521C082AE5D34460F0BD0246A2
:10063000002092680A4200D0012070474161704753
:1006400001617047FEE700002DE9F04700240F200C
:10065000FFF7DFFE3A4E4FF4806739463046FFF72A
:10066000E6FF012865D037492820087002E0012004
:10067000FFF7CFFE39463046FFF7D9FF0028F6D006
:10068000DFF8C4900025B046002602E00120FFF705
:10069000C0FE39464046FFF7CAFF0028F6D102E007
:1006A0000120FFF7B6FE39464046FFF7C0FF00289D
:1006B000F6D006E00120FFF7ACFE641CE4B21E2C6D
:1006C00037D239464046FFF7B2FF0028F2D119F879
:1006D00005004946400809F80500082C03D340F0FE
:1006E000800009F80500761C0024F6B2082ED0D34D
:1006F0006D1CEDB2042DC7D3C97899F80200C94327
:10070000C9B2884215D11149432816D005DC1528F5
:1007100009D040280DD1492006E044280BD04628B6
:1007200007D1412000E04220087007490120491EFE
:100730000870BDE8F0874320F6E74420F4E70000A6
:10074000001401400B000020190000200A000020C6
:1007500008B50121102000F0ADF84FF40050ADF8BD
:10076000000003208DF8020010208DF80300694678
:100770000148FFF70EFF08BD00100140FEE7000032
:10078000F8B54FF40050ADF8000002208DF80200DB
:100790001C4E10248DF8034069463046FFF7F9FEE1
:1007A000E501ADF8005069463046FFF7F2FEADF8BE
:1007B000005069461448FFF7ECFE0120134DADF8D8
:1007C000000069462846FFF7E4FE4020ADF800002F
:1007D00069462846FFF7DDFE6001ADF80000694676
:1007E0003046FFF7D6FEADF8004069462846FFF7D1
:1007F000D0FE0420ADF8000069462846FFF7C9FE88
:10080000F8BD00000020014000100140001401402C
:1008100010B5FFF7B5FFBDE81040FFF7E7BD704723
:1008200030B50F23C27801780125F2B1144A12685D
:1008300001F1E02102F4E062C2F5E062120AC2F1C5
:100840000404D3404278A24084781C40144322011F
:1008500081F80024007800F01F018D4040098000DD
:1008600000F1E020C0F8005130BD01F01F008540CC
:100870004809800000F1E020C0F8805130BD000040
:100880000CED00E00249084302490860704700008F
:100890000000FA050CED00E070470000044A002952
:1008A000D16901D0014300E08143D161704700006C
:1008B00000100240044A0029916901D0014300E080
:1008C00081439161704700000010024030B5204A1A
:1008D0005168204B11F00C0103D0042901D00829E4
:1008E00001D0036012E05168536801F470114FF0B9
:1008F000020413F4803F04EB914102D053689B0340
:1009000001D5154B00E0134B5943016051680F238B
:1009100003EA1111114B5C5C0168E14041605468CD
:10092000072505EA14241C5D21FA04F48460546848
:1009300005EAD4241B5DD940C1605268032303EA51
:100940009232064B1B1F9A5CB1FBF2F1016130BD84
:100950000010024000127A0000093D002100002032
:10096000704700000CB500222648009201920168F1
:1009700041F4803101604FF4A063016801F400315B
:1009800001910099491C0091019911B9009999426E
:10099000F3D10168890333D5012101911A490A680D
:1009A00042F010020A600A6822F003020A600A6834
:1009B00042F002020A60416841604168416041685A
:1009C00041F480614160416821F47C1141604168DB
:1009D00041F4E8114160016841F0807101600168F3
:1009E0008901FCD5416821F003014160416841F073
:1009F000020141604168C1F381010229FAD10CBDB5
:100A000001920CBD0010024000200240704700001F
:100A10000C48016841F00101016041680A4A114037
:100A200041600168094A11400160016821F4802198
:100A30000160416821F4FE0141604FF41F018160B3
:100A4000FFF790BF001002400000FFF8FFFFF6FE26
:100A500010B501218C07204600F066F800281BD055
:100A60000121204600F051F80C490878401CC0B222
:100A700008700A2810D300240C700949094A086834
:100A8000401C086013785B1C1370322800D30C6084
:100A9000BDE81040FFF734BC10BD00000D00002081
:100AA00000000020080000207FB501210846FFF764
:100AB000F5FE6320ADF804004720ADF800000024E7
:100AC0004FF08045ADF80640ADF802406946284633
:100AD00000F040F80121284600F017F801221146E5
:100AE000284600F02DF80121284600F011F81C20BE
:100AF0008DF80C008DF80D4001208DF80E008DF85A
:100B00000F0003A8FFF78CFE7FBDC9430182704729
:100B10000029018802D041F0010101E021F001012A
:100B200001807047808C704702460020138A9289AA
:100B30000B4202EA010202D0002A00D001207047D5
:100B4000002A828901D00A4300E08A4382817047EB
:100B50008184704730B502881B4C1C4DA0420DD0DB
:100B6000A8420BD0B0F1804F08D0194B984205D065
:100B7000184B984202D0184B984203D122F07003D0
:100B80004A881A43154B984206D0154B984203D019
:100B900022F44073CA881A4302808A8882850A88B0
:100BA0000285A0420AD0A84208D00E4A904205D041
:100BB0000D4A904202D00D4A904201D1097A018635
:100BC0000121818230BD0000002C01400034014031
:100BD0000004004000080040000C004000100040ED
:100BE0000014004000400140004401400048014022
:100BF00070B50446012186B08804FFF74FFE4FF41C
:100C00008060ADF8100002258DF812501820224E99
:100C10008DF8130004A93046FFF7BBFC04218DF8C2
:100C200013104802ADF8100004A93046FFF7B1FCDC
:100C300000940024ADF808400C20184EADF8044094
:100C4000ADF80A00ADF80640ADF80C4069463046F4
:100C500000F0B6F8012240F22551304600F098F835
:100C60000121304600F06BF84021304600F05EF87C
:100C70004FF4E060FFF706FE27208DF814008DF892
:100C800015408DF8165001208DF8170005A8FFF7C4
:100C9000C7FD06B070BD0000000C014000480040D8
:100CA0007CB51F4C40F225552946204600F051F8EE
:100CB000002818D02946204600F03BF8204600F0D6
:100CC000D5F8194C174D61686854491C6818616063
:100CD00010F8010C0A2801D0322904D12878002606
:100CE000412801D066607CBD8DF806606846FFF73C
:100CF000F9FB68784C2809D004DC422806D0472844
:100D000005D103E0522801D0532800D120700120E2
:100D100066608DF806006846FFF7E4FB7CBD0000C6
:100D2000004800403400002010000020C94301802A
:100D300070470A0A01219140C94301807047002988
:100D4000818902D041F4005101E021F400518181F8
:100D5000704770B501F01F0501260024C1F342134E
:100D600006FA05F2012B0FD0022B0FD0838A4FEA2F
:100D700011210088134206FA01F600EA060001D0AC
:100D800000B10124204670BD8389F0E7038AEEE7B5
:100D900010B5C1F3421301F01F040121A140012B42
:100DA00007D0022B07D01430002A026805D00A436E
:100DB00004E00C30F8E71030F6E78A43026010BD1B
:100DC00030B50446008A85B00D464CF6FF710840E8
:100DD000E98801432182A0894EF6F3110840A988D1
:100DE0002A8911436A8902431143A181A08A4FF6DF
:100DF000FF410840A9890143A1826846FFF766FDCB
:100E00001948844201D1039800E00298A18909049D
:100E100000EBC00101EB0010296801D5490000E09A
:100E20008900B0FBF1F06422B0FBF2F109010B097B
:100E30006FF018056B4300EB8300A3891D044FF08E
:100E4000320306D503EBC000B0FBF2F000F0070060
:100E500005E003EB0010B0FBF2F000F00F000843D8
:100E6000208105B030BD0000003801408088C0F30B
:100E700008007047FEE74FF0E020016921F004010F
:100E8000016170470024FFF7F6FFFFF763FBFFF7F0
:100E90000BFEFFF7BDFC4FF41650FFF7A9FEFFF75E
:100EA00057FC1A4EDFF868804FF400574FF4FA757C
:100EB00030784C2810D004DC42280AD0472813D1BF
:100EC00004E052280BD053280ED10BE0FFF7F0F9C5
:100ED0000AE0FFF7D9F907E0FFF7FCF904E0FFF7B4
:100EE0006FFA01E0FFF782FA2846FFF7C9FAE00738
:100EF0003946404606D0FFF7A3FB2846FFF7C0FA65
:100F0000641CD5E7FFF79AFBF7E70000100000200C
:100F100000100140340F00080000002034000000E1
:100F20006C010008680F00083400002094060000DF
:100F30008801000800000000282828280000490037
:100F400000000000000000000000000000000000A1
:100F5000000204060800000000010203040102036D
:080F6000040607080900000067
:0400000508000131BD
:00000001FF
